:100000000C9434000C9451000C9451000C94510049
:100010000C9451000C9451000C9451000C9451001C
:100020000C9451000C9451000C9451000C9451000C
:100030000C9451000C9451000C9451000C945100FC
:100040000C9451000C9451000C9451000C945100EC
:100050000C9451000C9451000C9451000C945100DC
:100060000C9451000C94510011241FBECFEFD8E026
:10007000DEBFCDBF11E0A0E0B1E0E2E5F1E002C0FB
:1000800005900D92A630B107D9F721E0A6E0B1E0C6
:1000900001C01D92A231B207E1F70E9453000C94F7
:1000A000A7000C940000209A1092C50087E6809368
:1000B000C400E2ECF0E0808186608083E1ECF0E057
:1000C000808188618083C0ECD0E006EC10E0FF24E2
:1000D000F39410920701109206018881882394F40A
:1000E0008091060190910701D8012C91FC01E85FF5
:1000F000FE4F20830196909307018093060188812B
:10010000882374F368E071E083E091E00E949E0030
:10011000892BF9F685B18F2585B9E0E0F1E00AC0B9
:100120008081D8018C93888185FDFACF31968081BA
:10013000882379F2888185FDF3CFF8CFFB01DC01BC
:100140008D91019080190110D9F3990B0895F894BD
:02015000FFCFDF
:060152004F4E004C0000BE
:00000001FF
