:100000000C9434000C9451000C9451000C94510049
:100010000C9451000C9451000C9451000C9451001C
:100020000C9451000C9451000C9451000C9451000C
:100030000C9451000C9451000C9451000C945100FC
:100040000C9451000C9451000C9451000C945100EC
:100050000C9451000C9451000C9451000C945100DC
:100060000C9451000C94510011241FBECFEFD8E026
:10007000DEBFCDBF11E0A0E0B1E0E2E7F1E002C0F9
:1000800005900D92AE30B107D9F721E0AEE0B1E0B6
:1000900001C01D92AE34B207E1F70E9482000C94B9
:1000A000B7000C9400008093C600E0ECF0E0808183
:1000B00085FFFDCF0895CF93DF93EC0188818823DE
:1000C00031F00E945300199288818111FACFDF919B
:1000D000CF910895CF93DF932091C00022236CF439
:1000E000DC01E0ECF0E0C6ECD0E090819923ECF785
:1000F00098819D939A30C9F702C0FC011082DF916C
:10010000CF910895209A1092C50087E68093C4008D
:10011000E2ECF0E0808186608083E1ECF0E08081B9
:10012000886180838EE091E00E946A0060E071E067
:100130008EE091E00E94AE00892B11F4289A09C04C
:1001400065E071E08EE091E00E94AE00892B09F439
:1001500028988EE091E00E945B00E4CFFB01DC0177
:100160008D91019080190110D9F3990B0895F8949D
:02017000FFCFBF
:0E0172004C45440A004C45444F46460A0000E6
:00000001FF
