:100000000C9434000C9451000C9451000C94510049
:100010000C9451000C9451000C9451000C9451001C
:100020000C9451000C9451000C9451000C9451000C
:100030000C9451000C9451000C9451000C945100FC
:100040000C9451000C9451000C9451000C945100EC
:100050000C9451000C9451000C9451000C945100DC
:100060000C9451000C94510011241FBECFEFD8E026
:10007000DEBFCDBF11E0A0E0B1E0EEE5F1E002C0EF
:1000800005900D92AE30B107D9F721E0AEE0B1E0B6
:1000900001C01D92AE34B207E1F70E9478000C94C3
:1000A000AD000C9400008093C6008091C00085FFD5
:1000B000FCCF0895CF93DF93EC018881882321F052
:1000C0000E9453001992F9CFDF91CF9108952091AA
:1000D000C000FC0127FF0AC08091C00087FFFCCF51
:1000E0008091C60081938A30B9F7089510820895EF
:1000F000209A1092C50087E68093C4008091C200C8
:1001000086608093C2008091C10088618093C100A5
:100110008EE091E00E94670060E071E08EE091E087
:100120000E94A400892B11F4289A09C065E071E0AF
:100130008EE091E00E94A400892B09F428988EE0BB
:1001400091E00E945A00E4CFFB01DC018D91019007
:0E01500080190110D9F3990B0895F894FFCF90
:0E015E004C45440A004C45444F46460A0000FA
:00000001FF
